{
    "_format": "hh-sol-artifact-1",
    "contractName": "AvatarNFT",
    "sourceName": "contracts/AvatarNFT.sol",
    "abi": [
        {
            "inputs": [
                {
                    "internalType": "string",
                    "name": "_tokenName",
                    "type": "string"
                },
                {
                    "internalType": "string",
                    "name": "_tokenSymbol",
                    "type": "string"
                }
            ],
            "stateMutability": "nonpayable",
            "type": "constructor"
        },
        {
            "inputs": [],
            "name": "CannotZeroAmount",
            "type": "error"
        },
        {
            "inputs": [],
            "name": "ExceedeedTokenClaiming",
            "type": "error"
        },
        {
            "inputs": [],
            "name": "InsufficientFunds",
            "type": "error"
        },
        {
            "inputs": [],
            "name": "InvalidProof",
            "type": "error"
        },
        {
            "inputs": [],
            "name": "InvalidTierInput",
            "type": "error"
        },
        {
            "inputs": [],
            "name": "MintingClose",
            "type": "error"
        },
        {
            "inputs": [],
            "name": "NonExistToken",
            "type": "error"
        },
        {
            "inputs": [],
            "name": "SupplyExceedeed",
            "type": "error"
        },
        {
            "anonymous": false,
            "inputs": [
                {
                    "indexed": true,
                    "internalType": "address",
                    "name": "owner",
                    "type": "address"
                },
                {
                    "indexed": true,
                    "internalType": "address",
                    "name": "approved",
                    "type": "address"
                },
                {
                    "indexed": true,
                    "internalType": "uint256",
                    "name": "tokenId",
                    "type": "uint256"
                }
            ],
            "name": "Approval",
            "type": "event"
        },
        {
            "anonymous": false,
            "inputs": [
                {
                    "indexed": true,
                    "internalType": "address",
                    "name": "owner",
                    "type": "address"
                },
                {
                    "indexed": true,
                    "internalType": "address",
                    "name": "operator",
                    "type": "address"
                },
                {
                    "indexed": false,
                    "internalType": "bool",
                    "name": "approved",
                    "type": "bool"
                }
            ],
            "name": "ApprovalForAll",
            "type": "event"
        },
        {
            "anonymous": false,
            "inputs": [
                {
                    "indexed": true,
                    "internalType": "address",
                    "name": "previousOwner",
                    "type": "address"
                },
                {
                    "indexed": true,
                    "internalType": "address",
                    "name": "newOwner",
                    "type": "address"
                }
            ],
            "name": "OwnershipTransferred",
            "type": "event"
        },
        {
            "anonymous": false,
            "inputs": [
                {
                    "indexed": true,
                    "internalType": "address",
                    "name": "from",
                    "type": "address"
                },
                {
                    "indexed": true,
                    "internalType": "address",
                    "name": "to",
                    "type": "address"
                },
                {
                    "indexed": true,
                    "internalType": "uint256",
                    "name": "tokenId",
                    "type": "uint256"
                }
            ],
            "name": "Transfer",
            "type": "event"
        },
        {
            "inputs": [
                {
                    "internalType": "address",
                    "name": "to",
                    "type": "address"
                },
                {
                    "internalType": "uint256",
                    "name": "tokenId",
                    "type": "uint256"
                }
            ],
            "name": "approve",
            "outputs": [],
            "stateMutability": "nonpayable",
            "type": "function"
        },
        {
            "inputs": [
                {
                    "internalType": "enum AvatarNFT.TierAvatar",
                    "name": "",
                    "type": "uint8"
                }
            ],
            "name": "avatar",
            "outputs": [
                {
                    "internalType": "bool",
                    "name": "isOpen",
                    "type": "bool"
                },
                {
                    "internalType": "bytes32",
                    "name": "merkleRoot",
                    "type": "bytes32"
                },
                {
                    "internalType": "uint256",
                    "name": "supply",
                    "type": "uint256"
                },
                {
                    "internalType": "uint256",
                    "name": "maxAmountPerAddress",
                    "type": "uint256"
                },
                {
                    "internalType": "uint256",
                    "name": "cost",
                    "type": "uint256"
                }
            ],
            "stateMutability": "view",
            "type": "function"
        },
        {
            "inputs": [
                {
                    "internalType": "address",
                    "name": "owner",
                    "type": "address"
                }
            ],
            "name": "balanceOf",
            "outputs": [
                {
                    "internalType": "uint256",
                    "name": "",
                    "type": "uint256"
                }
            ],
            "stateMutability": "view",
            "type": "function"
        },
        {
            "inputs": [
                {
                    "internalType": "uint256",
                    "name": "tokenId",
                    "type": "uint256"
                }
            ],
            "name": "exist",
            "outputs": [
                {
                    "internalType": "bool",
                    "name": "",
                    "type": "bool"
                }
            ],
            "stateMutability": "view",
            "type": "function"
        },
        {
            "inputs": [
                {
                    "internalType": "enum AvatarNFT.TierAvatar",
                    "name": "tier",
                    "type": "uint8"
                },
                {
                    "internalType": "address",
                    "name": "holder",
                    "type": "address"
                }
            ],
            "name": "getAddressAlreadyClaimed",
            "outputs": [
                {
                    "internalType": "uint256",
                    "name": "",
                    "type": "uint256"
                }
            ],
            "stateMutability": "view",
            "type": "function"
        },
        {
            "inputs": [
                {
                    "internalType": "uint256",
                    "name": "tokenId",
                    "type": "uint256"
                }
            ],
            "name": "getApproved",
            "outputs": [
                {
                    "internalType": "address",
                    "name": "",
                    "type": "address"
                }
            ],
            "stateMutability": "view",
            "type": "function"
        },
        {
            "inputs": [
                {
                    "internalType": "address",
                    "name": "owner",
                    "type": "address"
                },
                {
                    "internalType": "address",
                    "name": "operator",
                    "type": "address"
                }
            ],
            "name": "isApprovedForAll",
            "outputs": [
                {
                    "internalType": "bool",
                    "name": "",
                    "type": "bool"
                }
            ],
            "stateMutability": "view",
            "type": "function"
        },
        {
            "inputs": [
                {
                    "internalType": "uint256",
                    "name": "mintAmount",
                    "type": "uint256"
                },
                {
                    "internalType": "bytes32[]",
                    "name": "merkleProof",
                    "type": "bytes32[]"
                }
            ],
            "name": "mintEpic",
            "outputs": [],
            "stateMutability": "payable",
            "type": "function"
        },
        {
            "inputs": [
                {
                    "internalType": "uint256",
                    "name": "mintAmount",
                    "type": "uint256"
                },
                {
                    "internalType": "bytes32[]",
                    "name": "merkleProof",
                    "type": "bytes32[]"
                }
            ],
            "name": "mintLegendary",
            "outputs": [],
            "stateMutability": "payable",
            "type": "function"
        },
        {
            "inputs": [
                {
                    "internalType": "uint256",
                    "name": "mintAmount",
                    "type": "uint256"
                }
            ],
            "name": "mintRare",
            "outputs": [],
            "stateMutability": "payable",
            "type": "function"
        },
        {
            "inputs": [],
            "name": "name",
            "outputs": [
                {
                    "internalType": "string",
                    "name": "",
                    "type": "string"
                }
            ],
            "stateMutability": "view",
            "type": "function"
        },
        {
            "inputs": [],
            "name": "owner",
            "outputs": [
                {
                    "internalType": "address",
                    "name": "",
                    "type": "address"
                }
            ],
            "stateMutability": "view",
            "type": "function"
        },
        {
            "inputs": [
                {
                    "internalType": "uint256",
                    "name": "tokenId",
                    "type": "uint256"
                }
            ],
            "name": "ownerOf",
            "outputs": [
                {
                    "internalType": "address",
                    "name": "",
                    "type": "address"
                }
            ],
            "stateMutability": "view",
            "type": "function"
        },
        {
            "inputs": [],
            "name": "renounceOwnership",
            "outputs": [],
            "stateMutability": "nonpayable",
            "type": "function"
        },
        {
            "inputs": [
                {
                    "internalType": "address",
                    "name": "from",
                    "type": "address"
                },
                {
                    "internalType": "address",
                    "name": "to",
                    "type": "address"
                },
                {
                    "internalType": "uint256",
                    "name": "tokenId",
                    "type": "uint256"
                }
            ],
            "name": "safeTransferFrom",
            "outputs": [],
            "stateMutability": "nonpayable",
            "type": "function"
        },
        {
            "inputs": [
                {
                    "internalType": "address",
                    "name": "from",
                    "type": "address"
                },
                {
                    "internalType": "address",
                    "name": "to",
                    "type": "address"
                },
                {
                    "internalType": "uint256",
                    "name": "tokenId",
                    "type": "uint256"
                },
                {
                    "internalType": "bytes",
                    "name": "data",
                    "type": "bytes"
                }
            ],
            "name": "safeTransferFrom",
            "outputs": [],
            "stateMutability": "nonpayable",
            "type": "function"
        },
        {
            "inputs": [
                {
                    "internalType": "address",
                    "name": "operator",
                    "type": "address"
                },
                {
                    "internalType": "bool",
                    "name": "approved",
                    "type": "bool"
                }
            ],
            "name": "setApprovalForAll",
            "outputs": [],
            "stateMutability": "nonpayable",
            "type": "function"
        },
        {
            "inputs": [
                {
                    "internalType": "string",
                    "name": "uri",
                    "type": "string"
                }
            ],
            "name": "setBaseUri",
            "outputs": [],
            "stateMutability": "nonpayable",
            "type": "function"
        },
        {
            "inputs": [
                {
                    "internalType": "enum AvatarNFT.TierAvatar",
                    "name": "tier",
                    "type": "uint8"
                },
                {
                    "internalType": "bytes32",
                    "name": "merkleRoot",
                    "type": "bytes32"
                }
            ],
            "name": "setMerkleRoot",
            "outputs": [],
            "stateMutability": "nonpayable",
            "type": "function"
        },
        {
            "inputs": [
                {
                    "internalType": "bytes4",
                    "name": "interfaceId",
                    "type": "bytes4"
                }
            ],
            "name": "supportsInterface",
            "outputs": [
                {
                    "internalType": "bool",
                    "name": "",
                    "type": "bool"
                }
            ],
            "stateMutability": "view",
            "type": "function"
        },
        {
            "inputs": [],
            "name": "symbol",
            "outputs": [
                {
                    "internalType": "string",
                    "name": "",
                    "type": "string"
                }
            ],
            "stateMutability": "view",
            "type": "function"
        },
        {
            "inputs": [
                {
                    "internalType": "enum AvatarNFT.TierAvatar",
                    "name": "tier",
                    "type": "uint8"
                },
                {
                    "internalType": "bool",
                    "name": "toggle",
                    "type": "bool"
                }
            ],
            "name": "toggleMint",
            "outputs": [],
            "stateMutability": "nonpayable",
            "type": "function"
        },
        {
            "inputs": [
                {
                    "internalType": "uint256",
                    "name": "_tokenId",
                    "type": "uint256"
                }
            ],
            "name": "tokenURI",
            "outputs": [
                {
                    "internalType": "string",
                    "name": "",
                    "type": "string"
                }
            ],
            "stateMutability": "view",
            "type": "function"
        },
        {
            "inputs": [
                {
                    "internalType": "address",
                    "name": "from",
                    "type": "address"
                },
                {
                    "internalType": "address",
                    "name": "to",
                    "type": "address"
                },
                {
                    "internalType": "uint256",
                    "name": "tokenId",
                    "type": "uint256"
                }
            ],
            "name": "transferFrom",
            "outputs": [],
            "stateMutability": "nonpayable",
            "type": "function"
        },
        {
            "inputs": [
                {
                    "internalType": "address",
                    "name": "newOwner",
                    "type": "address"
                }
            ],
            "name": "transferOwnership",
            "outputs": [],
            "stateMutability": "nonpayable",
            "type": "function"
        },
        {
            "inputs": [],
            "name": "withdraw",
            "outputs": [],
            "stateMutability": "nonpayable",
            "type": "function"
        }
    ],
    "bytecode": "0x600880546001600160a01b031916733eced6d8940b3d28cdc610651bfdbec86b3d02cd17905560016009556038600a556103e9600b5560a060405260006080908152600f90620000509082620004b0565b503480156200005e57600080fd5b5060405162002a6438038062002a6483398101604081905262000081916200062b565b81816000620000918382620004b0565b506001620000a08282620004b0565b505050620000bd620000b7620003b560201b60201c565b620003b9565b5050600160078190556040805160a08082018352600080835260208084018281526037858701908152606080870189815266b1a2bc2ec500006080808a01918252878052601080885299517f6e0956cda88cad152e89927e53611735b61a5c762d1428573c6931b0a5efcb01805491151560ff1992831617905595517f6e0956cda88cad152e89927e53611735b61a5c762d1428573c6931b0a5efcb025593517f6e0956cda88cad152e89927e53611735b61a5c762d1428573c6931b0a5efcb035590517f6e0956cda88cad152e89927e53611735b61a5c762d1428573c6931b0a5efcb0455517f6e0956cda88cad152e89927e53611735b61a5c762d1428573c6931b0a5efcb0555875180870189528581528085018681526103b1828b019081526003838501908152666a94d74f4300008487019081529c89528a885292517f8c6065603763fec3f5742441d3833f3f43b982453612d76adb39a885e3006b5f805491151591881691909117905590517f8c6065603763fec3f5742441d3833f3f43b982453612d76adb39a885e3006b6055517f8c6065603763fec3f5742441d3833f3f43b982453612d76adb39a885e3006b6155517f8c6065603763fec3f5742441d3833f3f43b982453612d76adb39a885e3006b625597517f8c6065603763fec3f5742441d3833f3f43b982453612d76adb39a885e3006b6355865194850187528385528483018481526107d09786019788526005988601988952662386f26fc1000091860191825260029094529490915291517f853b2fefe141400fef543280f93d98bd49996069f632d0d20236afeeed8e46a2805490931690151517909155517f853b2fefe141400fef543280f93d98bd49996069f632d0d20236afeeed8e46a35590517f853b2fefe141400fef543280f93d98bd49996069f632d0d20236afeeed8e46a45590517f853b2fefe141400fef543280f93d98bd49996069f632d0d20236afeeed8e46a555517f853b2fefe141400fef543280f93d98bd49996069f632d0d20236afeeed8e46a65562000695565b3390565b600680546001600160a01b038381166001600160a01b0319831681179093556040519116919082907f8be0079c531659141344cd1fd0a4f28419497f9722a3daafe3b4186f6b6457e090600090a35050565b634e487b7160e01b600052604160045260246000fd5b600181811c908216806200043657607f821691505b6020821081036200045757634e487b7160e01b600052602260045260246000fd5b50919050565b601f821115620004ab57600081815260208120601f850160051c81016020861015620004865750805b601f850160051c820191505b81811015620004a75782815560010162000492565b5050505b505050565b81516001600160401b03811115620004cc57620004cc6200040b565b620004e481620004dd845462000421565b846200045d565b602080601f8311600181146200051c5760008415620005035750858301515b600019600386901b1c1916600185901b178555620004a7565b600085815260208120601f198616915b828110156200054d578886015182559484019460019091019084016200052c565b50858210156200056c5787850151600019600388901b60f8161c191681555b5050505050600190811b01905550565b600082601f8301126200058e57600080fd5b81516001600160401b0380821115620005ab57620005ab6200040b565b604051601f8301601f19908116603f01168101908282118183101715620005d657620005d66200040b565b81604052838152602092508683858801011115620005f357600080fd5b600091505b83821015620006175785820183015181830184015290820190620005f8565b600093810190920192909252949350505050565b600080604083850312156200063f57600080fd5b82516001600160401b03808211156200065757600080fd5b62000665868387016200057c565b935060208501519150808211156200067c57600080fd5b506200068b858286016200057c565b9150509250929050565b6123bf80620006a56000396000f3fe6080604052600436106101815760003560e01c8063715018a6116100d1578063b88d4fde1161008a578063e3155d0511610064578063e3155d0514610448578063e83bdd701461045b578063e985e9c5146104d3578063f2fde38b1461051c57600080fd5b8063b88d4fde146103e8578063c87b56dd14610408578063d7df21f01461042857600080fd5b8063715018a6146103405780638da5cb5b14610355578063916336201461037357806395d89b4114610393578063a0bcfc7f146103a8578063a22cb465146103c857600080fd5b806338d9c8c71161013e5780634ebbc92a116101185780634ebbc92a146102b257806354d77e0e146102d25780636352211e146102f257806370a082311461031257600080fd5b806338d9c8c71461026a5780633ccfd60b1461027d57806342842e0e1461029257600080fd5b806301ffc9a71461018657806306fdde03146101bb578063081812fc146101dd578063095ea7b31461021557806323b872dd146102375780632a4577d014610257575b600080fd5b34801561019257600080fd5b506101a66101a1366004611c34565b61053c565b60405190151581526020015b60405180910390f35b3480156101c757600080fd5b506101d061058e565b6040516101b29190611ca1565b3480156101e957600080fd5b506101fd6101f8366004611cb4565b610620565b6040516001600160a01b0390911681526020016101b2565b34801561022157600080fd5b50610235610230366004611ce9565b610647565b005b34801561024357600080fd5b50610235610252366004611d13565b610761565b610235610265366004611cb4565b610792565b610235610278366004611d4f565b610886565b34801561028957600080fd5b5061023561098d565b34801561029e57600080fd5b506102356102ad366004611d13565b610aac565b3480156102be57600080fd5b506101a66102cd366004611cb4565b610ac7565b3480156102de57600080fd5b506102356102ed366004611ddd565b610ae6565b3480156102fe57600080fd5b506101fd61030d366004611cb4565b610b37565b34801561031e57600080fd5b5061033261032d366004611df9565b610b97565b6040519081526020016101b2565b34801561034c57600080fd5b50610235610c1d565b34801561036157600080fd5b506006546001600160a01b03166101fd565b34801561037f57600080fd5b5061023561038e366004611e24565b610c2f565b34801561039f57600080fd5b506101d0610c82565b3480156103b457600080fd5b506102356103c3366004611ee3565b610c91565b3480156103d457600080fd5b506102356103e3366004611f2c565b610ca9565b3480156103f457600080fd5b50610235610403366004611f48565b610cb4565b34801561041457600080fd5b506101d0610423366004611cb4565b610cec565b34801561043457600080fd5b50610332610443366004611fc4565b610e03565b610235610456366004611d4f565b610e56565b34801561046757600080fd5b506104a9610476366004611fee565b6010602052600090815260409020805460018201546002830154600384015460049094015460ff90931693919290919085565b6040805195151586526020860194909452928401919091526060830152608082015260a0016101b2565b3480156104df57600080fd5b506101a66104ee366004612009565b6001600160a01b03918216600090815260056020908152604080832093909416825291909152205460ff1690565b34801561052857600080fd5b50610235610537366004611df9565b610f54565b60006001600160e01b031982166380ac58cd60e01b148061056d57506001600160e01b03198216635b5e139f60e01b145b8061058857506301ffc9a760e01b6001600160e01b03198316145b92915050565b60606000805461059d90612025565b80601f01602080910402602001604051908101604052809291908181526020018280546105c990612025565b80156106165780601f106105eb57610100808354040283529160200191610616565b820191906000526020600020905b8154815290600101906020018083116105f957829003601f168201915b5050505050905090565b600061062b82610fcd565b506000908152600460205260409020546001600160a01b031690565b600061065282610b37565b9050806001600160a01b0316836001600160a01b0316036106c45760405162461bcd60e51b815260206004820152602160248201527f4552433732313a20617070726f76616c20746f2063757272656e74206f776e656044820152603960f91b60648201526084015b60405180910390fd5b336001600160a01b03821614806106e057506106e081336104ee565b6107525760405162461bcd60e51b815260206004820152603d60248201527f4552433732313a20617070726f76652063616c6c6572206973206e6f7420746f60448201527f6b656e206f776e6572206f7220617070726f76656420666f7220616c6c00000060648201526084016106bb565b61075c838361102c565b505050565b61076b338261109a565b6107875760405162461bcd60e51b81526004016106bb9061205f565b61075c838383611119565b61079c600261127d565b6107a8600233836112d5565b600081600e546107b891906120c2565b600260005260106020527f853b2fefe141400fef543280f93d98bd49996069f632d0d20236afeeed8e46a45490915081111561080757604051635646a07760e11b815260040160405180910390fd5b33600090815260116020908152604080832060028452909152812080548492906108329084906120c2565b9250508190555081600e600082825461084b91906120c2565b90915550600090505b8281101561075c57600b8054908190600061086e836120eb565b919050555061087d338261148c565b50600101610854565b610890600161127d565b61089c60018383611617565b6108a8600133856112d5565b600083600d546108b891906120c2565b600160005260106020527f8c6065603763fec3f5742441d3833f3f43b982453612d76adb39a885e3006b615490915081111561090757604051635646a07760e11b815260040160405180910390fd5b33600090815260116020908152604080832060018452909152812080548692906109329084906120c2565b9250508190555083600d600082825461094b91906120c2565b90915550600090505b8481101561098657600a8054908190600061096e836120eb565b919050555061097d338261148c565b50600101610954565b5050505050565b6109956116eb565b61099d611745565b4760008190036109c05760405163356680b760e01b815260040160405180910390fd5b600073a7105c78ffe576102e6a559accc6e4604568784160c86109e4476005612104565b6109ee919061211b565b604051600081818185875af1925050503d8060008114610a2a576040519150601f19603f3d011682016040523d82523d6000602084013e610a2f565b606091505b5050905080610a3d57600080fd5b6008546040516000916001600160a01b03169047908381818185875af1925050503d8060008114610a8a576040519150601f19603f3d011682016040523d82523d6000602084013e610a8f565b606091505b5050905080610a9d57600080fd5b505050610aaa6001600755565b565b61075c83838360405180602001604052806000815250610cb4565b6000818152600260205260408120546001600160a01b03161515610588565b610aee6116eb565b610af78261179e565b8060106000846002811115610b0e57610b0e6120d5565b6002811115610b1f57610b1f6120d5565b81526020810191909152604001600020600101555050565b6000818152600260205260408120546001600160a01b0316806105885760405162461bcd60e51b8152602060048201526018602482015277115490cdcc8c4e881a5b9d985b1a59081d1bdad95b88125160421b60448201526064016106bb565b60006001600160a01b038216610c015760405162461bcd60e51b815260206004820152602960248201527f4552433732313a2061646472657373207a65726f206973206e6f7420612076616044820152683634b21037bbb732b960b91b60648201526084016106bb565b506001600160a01b031660009081526003602052604090205490565b610c256116eb565b610aaa60006117d0565b610c376116eb565b8060106000846002811115610c4e57610c4e6120d5565b6002811115610c5f57610c5f6120d5565b81526020810191909152604001600020805460ff19169115159190911790555050565b60606001805461059d90612025565b610c996116eb565b600f610ca58282612183565b5050565b610ca5338383611822565b610cbe338361109a565b610cda5760405162461bcd60e51b81526004016106bb9061205f565b610ce6848484846118f0565b50505050565b6000818152600260205260409020546060906001600160a01b0316610d2457604051634af5033360e01b815260040160405180910390fd5b6000600f8054610d3390612025565b80601f0160208091040260200160405190810160405280929190818152602001828054610d5f90612025565b8015610dac5780601f10610d8157610100808354040283529160200191610dac565b820191906000526020600020905b815481529060010190602001808311610d8f57829003601f168201915b505050505090506000815111610dd15760405180602001604052806000815250610dfc565b80610ddb84611923565b604051602001610dec929190612243565b6040516020818303038152906040525b9392505050565b6001600160a01b038116600090815260116020526040812081846002811115610e2e57610e2e6120d5565b6002811115610e3f57610e3f6120d5565b815260200190815260200160002054905092915050565b610e60600061127d565b610e6c60008383611617565b610e78600033856112d5565b600083600c54610e8891906120c2565b6000805260106020527f6e0956cda88cad152e89927e53611735b61a5c762d1428573c6931b0a5efcb0354909150811115610ed657604051635646a07760e11b815260040160405180910390fd5b33600090815260116020908152604080832083805290915281208054869290610f009084906120c2565b9250508190555083600c6000828254610f1991906120c2565b90915550600090505b8481101561098657600980549081906000610f3c836120eb565b9190505550610f4b338261148c565b50600101610f22565b610f5c6116eb565b6001600160a01b038116610fc15760405162461bcd60e51b815260206004820152602660248201527f4f776e61626c653a206e6577206f776e657220697320746865207a65726f206160448201526564647265737360d01b60648201526084016106bb565b610fca816117d0565b50565b6000818152600260205260409020546001600160a01b0316610fca5760405162461bcd60e51b8152602060048201526018602482015277115490cdcc8c4e881a5b9d985b1a59081d1bdad95b88125160421b60448201526064016106bb565b600081815260046020526040902080546001600160a01b0319166001600160a01b038416908117909155819061106182610b37565b6001600160a01b03167f8c5be1e5ebec7d5bd14f71427d1e84f3dd0314c0f7b2291e5b200ac8c7c3b92560405160405180910390a45050565b6000806110a683610b37565b9050806001600160a01b0316846001600160a01b031614806110ed57506001600160a01b0380821660009081526005602090815260408083209388168352929052205460ff165b806111115750836001600160a01b031661110684610620565b6001600160a01b0316145b949350505050565b826001600160a01b031661112c82610b37565b6001600160a01b0316146111525760405162461bcd60e51b81526004016106bb90612282565b6001600160a01b0382166111b45760405162461bcd60e51b8152602060048201526024808201527f4552433732313a207472616e7366657220746f20746865207a65726f206164646044820152637265737360e01b60648201526084016106bb565b826001600160a01b03166111c782610b37565b6001600160a01b0316146111ed5760405162461bcd60e51b81526004016106bb90612282565b600081815260046020908152604080832080546001600160a01b03199081169091556001600160a01b0387811680865260038552838620805460001901905590871680865283862080546001019055868652600290945282852080549092168417909155905184937fddf252ad1be2c89b69c2b068fc378daa952ba7f163c4a11628f55a4df523b3ef91a4505050565b60106000826002811115611293576112936120d5565b60028111156112a4576112a46120d5565b815260208101919091526040016000205460ff16610fca576040516337f4c88160e01b815260040160405180910390fd5b60018110156112f75760405163fdc1fec760e01b815260040160405180910390fd5b60006010600085600281111561130f5761130f6120d5565b6002811115611320576113206120d5565b81526020810191909152604001600020600301546008549091506001600160a01b03908116908416036113a157600560106000866002811115611365576113656120d5565b6002811115611376576113766120d5565b815260200190815260200160002060020154600161139491906120c2565b61139e919061211b565b90505b6001600160a01b03831660009081526011602052604081208390828760028111156113ce576113ce6120d5565b60028111156113df576113df6120d5565b8152602001908152602001600020546113f891906120c2565b90508181111561141b5760405163a3ee1b6d60e01b815260040160405180910390fd5b600060106000876002811115611433576114336120d5565b6002811115611444576114446120d5565b815260200190815260200160002060040154846114619190612104565b9050803410156114845760405163356680b760e01b815260040160405180910390fd5b505050505050565b6001600160a01b0382166114e25760405162461bcd60e51b815260206004820181905260248201527f4552433732313a206d696e7420746f20746865207a65726f206164647265737360448201526064016106bb565b6000818152600260205260409020546001600160a01b0316156115475760405162461bcd60e51b815260206004820152601c60248201527f4552433732313a20746f6b656e20616c7265616479206d696e7465640000000060448201526064016106bb565b6000818152600260205260409020546001600160a01b0316156115ac5760405162461bcd60e51b815260206004820152601c60248201527f4552433732313a20746f6b656e20616c7265616479206d696e7465640000000060448201526064016106bb565b6001600160a01b038216600081815260036020908152604080832080546001019055848352600290915280822080546001600160a01b0319168417905551839291907fddf252ad1be2c89b69c2b068fc378daa952ba7f163c4a11628f55a4df523b3ef908290a45050565b6116208361179e565b6040516bffffffffffffffffffffffff193360601b1660208201526000906034016040516020818303038152906040528051906020012090506116ce838380806020026020016040519081016040528093929190818152602001838360200280828437600092018290525060109350915088905060028111156116a5576116a56120d5565b60028111156116b6576116b66120d5565b815260200190815260200160002060010154836119b6565b610ce6576040516309bde33960e01b815260040160405180910390fd5b6006546001600160a01b03163314610aaa5760405162461bcd60e51b815260206004820181905260248201527f4f776e61626c653a2063616c6c6572206973206e6f7420746865206f776e657260448201526064016106bb565b6002600754036117975760405162461bcd60e51b815260206004820152601f60248201527f5265656e7472616e637947756172643a207265656e7472616e742063616c6c0060448201526064016106bb565b6002600755565b60028160028111156117b2576117b26120d5565b03610fca57604051637b9b21d560e11b815260040160405180910390fd5b600680546001600160a01b038381166001600160a01b0319831681179093556040519116919082907f8be0079c531659141344cd1fd0a4f28419497f9722a3daafe3b4186f6b6457e090600090a35050565b816001600160a01b0316836001600160a01b0316036118835760405162461bcd60e51b815260206004820152601960248201527f4552433732313a20617070726f766520746f2063616c6c65720000000000000060448201526064016106bb565b6001600160a01b03838116600081815260056020908152604080832094871680845294825291829020805460ff191686151590811790915591519182527f17307eab39ab6107e8899845ad3d59bd9653f200f220920489ca2b5937696c31910160405180910390a3505050565b6118fb848484611119565b611907848484846119cc565b610ce65760405162461bcd60e51b81526004016106bb906122c7565b6060600061193083611acd565b600101905060008167ffffffffffffffff81111561195057611950611e57565b6040519080825280601f01601f19166020018201604052801561197a576020820181803683370190505b5090508181016020015b600019016f181899199a1a9b1b9c1cb0b131b232b360811b600a86061a8153600a850494508461198457509392505050565b6000826119c38584611ba5565b14949350505050565b60006001600160a01b0384163b15611ac257604051630a85bd0160e11b81526001600160a01b0385169063150b7a0290611a10903390899088908890600401612319565b6020604051808303816000875af1925050508015611a4b575060408051601f3d908101601f19168201909252611a4891810190612356565b60015b611aa8573d808015611a79576040519150601f19603f3d011682016040523d82523d6000602084013e611a7e565b606091505b508051600003611aa05760405162461bcd60e51b81526004016106bb906122c7565b805181602001fd5b6001600160e01b031916630a85bd0160e11b149050611111565b506001949350505050565b60008072184f03e93ff9f4daa797ed6e38ed64bf6a1f0160401b8310611b0c5772184f03e93ff9f4daa797ed6e38ed64bf6a1f0160401b830492506040015b6d04ee2d6d415b85acef81000000008310611b38576d04ee2d6d415b85acef8100000000830492506020015b662386f26fc100008310611b5657662386f26fc10000830492506010015b6305f5e1008310611b6e576305f5e100830492506008015b6127108310611b8257612710830492506004015b60648310611b94576064830492506002015b600a83106105885760010192915050565b600081815b8451811015611bea57611bd682868381518110611bc957611bc9612373565b6020026020010151611bf2565b915080611be2816120eb565b915050611baa565b509392505050565b6000818310611c0e576000828152602084905260409020610dfc565b5060009182526020526040902090565b6001600160e01b031981168114610fca57600080fd5b600060208284031215611c4657600080fd5b8135610dfc81611c1e565b60005b83811015611c6c578181015183820152602001611c54565b50506000910152565b60008151808452611c8d816020860160208601611c51565b601f01601f19169290920160200192915050565b602081526000610dfc6020830184611c75565b600060208284031215611cc657600080fd5b5035919050565b80356001600160a01b0381168114611ce457600080fd5b919050565b60008060408385031215611cfc57600080fd5b611d0583611ccd565b946020939093013593505050565b600080600060608486031215611d2857600080fd5b611d3184611ccd565b9250611d3f60208501611ccd565b9150604084013590509250925092565b600080600060408486031215611d6457600080fd5b83359250602084013567ffffffffffffffff80821115611d8357600080fd5b818601915086601f830112611d9757600080fd5b813581811115611da657600080fd5b8760208260051b8501011115611dbb57600080fd5b6020830194508093505050509250925092565b803560038110611ce457600080fd5b60008060408385031215611df057600080fd5b611d0583611dce565b600060208284031215611e0b57600080fd5b610dfc82611ccd565b80358015158114611ce457600080fd5b60008060408385031215611e3757600080fd5b611e4083611dce565b9150611e4e60208401611e14565b90509250929050565b634e487b7160e01b600052604160045260246000fd5b600067ffffffffffffffff80841115611e8857611e88611e57565b604051601f8501601f19908116603f01168101908282118183101715611eb057611eb0611e57565b81604052809350858152868686011115611ec957600080fd5b858560208301376000602087830101525050509392505050565b600060208284031215611ef557600080fd5b813567ffffffffffffffff811115611f0c57600080fd5b8201601f81018413611f1d57600080fd5b61111184823560208401611e6d565b60008060408385031215611f3f57600080fd5b611e4083611ccd565b60008060008060808587031215611f5e57600080fd5b611f6785611ccd565b9350611f7560208601611ccd565b925060408501359150606085013567ffffffffffffffff811115611f9857600080fd5b8501601f81018713611fa957600080fd5b611fb887823560208401611e6d565b91505092959194509250565b60008060408385031215611fd757600080fd5b611fe083611dce565b9150611e4e60208401611ccd565b60006020828403121561200057600080fd5b610dfc82611dce565b6000806040838503121561201c57600080fd5b611fe083611ccd565b600181811c9082168061203957607f821691505b60208210810361205957634e487b7160e01b600052602260045260246000fd5b50919050565b6020808252602d908201527f4552433732313a2063616c6c6572206973206e6f7420746f6b656e206f776e6560408201526c1c881bdc88185c1c1c9bdd9959609a1b606082015260800190565b634e487b7160e01b600052601160045260246000fd5b80820180821115610588576105886120ac565b634e487b7160e01b600052602160045260246000fd5b6000600182016120fd576120fd6120ac565b5060010190565b8082028115828204841417610588576105886120ac565b60008261213857634e487b7160e01b600052601260045260246000fd5b500490565b601f82111561075c57600081815260208120601f850160051c810160208610156121645750805b601f850160051c820191505b8181101561148457828155600101612170565b815167ffffffffffffffff81111561219d5761219d611e57565b6121b1816121ab8454612025565b8461213d565b602080601f8311600181146121e657600084156121ce5750858301515b600019600386901b1c1916600185901b178555611484565b600085815260208120601f198616915b82811015612215578886015182559484019460019091019084016121f6565b50858210156122335787850151600019600388901b60f8161c191681555b5050505050600190811b01905550565b60008351612255818460208801611c51565b835190830190612269818360208801611c51565b64173539b7b760d91b9101908152600501949350505050565b60208082526025908201527f4552433732313a207472616e736665722066726f6d20696e636f72726563742060408201526437bbb732b960d91b606082015260800190565b60208082526032908201527f4552433732313a207472616e7366657220746f206e6f6e20455243373231526560408201527131b2b4bb32b91034b6b83632b6b2b73a32b960711b606082015260800190565b6001600160a01b038581168252841660208201526040810183905260806060820181905260009061234c90830184611c75565b9695505050505050565b60006020828403121561236857600080fd5b8151610dfc81611c1e565b634e487b7160e01b600052603260045260246000fdfea264697066735822122063bb7e6adde9f53921edbcc743ac17e02fcaccf79670ec73bc4c2bedb98033f164736f6c63430008130033",
    "linkReferences": {},
    "deployedLinkReferences": {}
}